:020000040001F9
:10600000583E002085C0010097C0010099C00100E2
:106010000000000000000000000000000000000080
:106020000000000000000000000000009BC0010014
:1060300000000000000000009DC001009FC00100A2
:10604000A1C00100A1C00100A1C00100A1C00100C8
:10605000A1C00100000000004DDA0100BB6C01008E
:10606000A1C00100A1C00100A1C00100A9680100F8
:10607000A1C00100A1C00100A1C00100A1C0010098
:10608000A1C0010049E00100A1C00100A1C00100C0
:106090005FE0010089D7010035D80100A1C00100EF
:1060A000A1C00100A1C0010000000000000000002C
:1060B00000000000000000000000000000000000E0
:1060C000034885460BF034F900480047EF680100AB
:1060D000583E0020401E00BF00BF00BF00BF00BFF1
:1060E00000BF00BF00BF00BF00BF00BF00BFF1D1B5
:1060F00070470000401E00BF00BF00BF00BF00BFD0
:1061000000BF00BF00BF00BF00BF00BF00BFF1D194
:1061100070470000FE4C2023E36007F0C4F8BFF393
:106120004F8FFD49FB48C860BFF34F8FFEE70A461B
:106130000146FA48FFF7EEFFF1B596B00321C943D7
:1061400010A80172F6480224C4603C2168460AF097
:10615000BAFD0121009468464171018116A803909F
:10616000002712A80490684687830897878287844F
:106170003D463C463E4613A80B9761DF002828D0D9
:10618000E848816A456A8CB2032615AFF2002846BA
:1061900021460AF06EFD0321891B761E76B27854E3
:1061A000002EF3DA042010A9119708802004000EB5
:1061B00021020843694688870FA80C900021684691
:1061C00006F028FC002812D0FF21D7A2B031FFF73B
:1061D000A1FF13A880194078F20039460AF039FD72
:1061E000761C05430C4376B2062EF2DBCCE717B0E3
:1061F000F0BDF0B589B0142168460AF064FD0020B6
:106200006946087001900872C54C0390E068032647
:1062100050270225002806D0012805D002282DD0BD
:10622000032822D133E0E56005A808F030FD0028FE
:1062300002D0BDA2DD211FE06846007E002803D108
:1062400008A80078002808D06846057205A80390C1
:106250000420FFF771FFE56000E0E6606846078212
:1062600014214182012007F0AFFA684663DF00285D
:1062700019D0FF21ACA20831FFF74CFF0520FFF732
:106280005BFF6846078228214182E660EAE7052035
:10629000FFF752FF1921890168460182B42141822A
:1062A0000220E660DFE709B0F0BD08B5A448009021
:1062B000A44B0B221021002007F0F7FE002804D089
:1062C000FF2199A22431FFF725FF08BD10B501F089
:1062D000C1FE002803D0FF2193A23B312AE09A4A55
:1062E00001219A4807F033FF002803D0FF218EA236
:1062F00040311FE0964A0021964807F028FF002809
:1063000003D0FF2188A2453114E08548924A00213C
:10631000103007F01CFF002803D0FF2182A24A3171
:1063200008E004F04DFD04F04EFF002804D0FF21EA
:106330007DA24F31FFF7EEFE10BD70B5057887489E
:10634000294606F068F800280AD0082808D08449B1
:10635000884205D08349884202D073A2824917E05F
:106360006F4C002D05D00020A060002004F033FE0B
:1063700070BDA068401CA0600328F6DD04F037FE65
:106380000228F2D11521608866DF774966A20831BC
:10639000FFF7C0FE10B59AB0402168460AF093FCA2
:1063A00072A1684605F03EFF73A108A805F03AFF08
:1063B00073A102A805F036FF6FA106A805F032FF11
:1063C000002018A9087001200007406919A90F389A
:1063D000C0B207F01CF804F017FF010004A81DD09C
:1063E000199A002110AB545C5C54491CC9B2202995
:1063F000F9D3194605F016FF0120014608A810310F
:1064000001770020014608A84177684606F0ABF8FE
:10641000002805D044A25C49FFF77CFE5BA1E9E7B8
:106420001AB010BD8D2140A28900FFF773FEF8B5A8
:1064300003884526594D5A49F6430022384C192BFA
:1064400064D00CDC574F102B1DD0112B2AD0132BEE
:1064500027D122461432002160886FDF0CE01A2B0E
:1064600055D0392B01D0552B1BD10A70002004F0D8
:106470006FFB1321608866DF002812D03A492AA2F8
:10648000E139FFF747FE0221E1608088608074DF18
:10649000608873DFA5804B2101224904386807F02A
:1064A0009DFEF8BD15460A70002004F051FB002047
:1064B000C043608001F0CBFD012801D101F0C6FC92
:1064C000386807F0C6FE38480178002902D0057008
:1064D00001F0D8FD00F064FE002801D001F005F8BD
:1064E00001F0C5FB00286AD005F020FD002866D029
:1064F00005F024FD002862D0002005F013FD0020E7
:1065000001F0B9FB0420205EB0424FE06BE077E081
:10651000000500500400FA0500ED00E0EFBEADDE1E
:1065200000200020800000102E2E5C536F757263D7
:10653000655C7372635C6D61696E2E6300000000C0
:106540008B690100402500202F9D01000C210020B7
:10655000DB9C0100182100200B750100BC2B0020E2
:106560000330000001340000D3030000426169647D
:106570007520496E63000000312E302E300000007F
:1065800064753130300000000302000030313233D6
:10659000343536373839616263646500FF0F0000B7
:1065A0003C2100208C200020B820002007DA05F0D4
:1065B000C5FC02280AD00021072004F021FC207825
:1065C000002805D0257008F038FB09E00121F3E729
:1065D00008F083FA002803D0B121F74A890050E778
:1065E00008F083FC09E00A708079002800D058E7A1
:1065F000E068042801D10320E060FFF7FAFDF8BD50
:106600000627C75705F09AFCEC4800680128F6D128
:106610000420205EA84201D1A78009E003210AF0EE
:10662000A1FA4500032138460AF09CFA2818A080F8
:1066300005F07CFC0028E2D10420205EB042DEDDC3
:10664000012005F06FFCF8BD10B504460088102845
:1066500002D0112802D004E0032000E0002007F05F
:10666000B3F82146D64800F07EFC204608F0C6F973
:10667000204606F070FBD2482146183805F0DCFDB4
:106680002046FFF7D4FE10BD08B5CE48CC49009097
:10669000CD4B50229C390D2007F0A4F8002803D0E0
:1066A000C54ACA49FFF736FD08BD10B5042804D015
:1066B000C649C14A1431FFF72DFD00F077FD0028CF
:1066C00005D0C348012101701321408866DF10BD49
:1066D000704770B5BF480168CA070121002A1BD066
:1066E000016084046569383D03E0E8B206F078FE95
:1066F0006D1C60691838A842F7D86569183D07E035
:1067000060690F38A84202D0E8B206F069FE6D1C3D
:1067100060690E38A842F3D8AF498020C860FF20D6
:10672000913003F08DF8072000F023F970BD0020B0
:10673000AA49022283005B181A60401C2028F9D362
:10674000704710B5A5490320C86188614861886019
:10675000A24940318860072000F00BF9062000F0C4
:1067600008F9052000F005F9022000F002F91220D6
:1067700000F0FFF804F02FFD00F0C6F9FFF795FDDB
:10678000974A1421082007F091FA002803D095A217
:106790008B21FFF7BFFC04F062FC00F040FB00F02F
:1067A00054FB02F0C6F810BD00B587B005F0CAF979
:1067B000FFF78CFD824902204C3907F0ACF9002824
:1067C00003D0E32187A289005BE001F0A8FE00224C
:1067D00001231B0759696846133901705969143937
:1067E000417086480190864802906846827008F0A1
:1067F0007FFA002803D075497AA2613141E0FFF7A2
:1068000043FF00F0CBF80520FFF796FC00F03CF9C1
:106810001C2168460AF057FA052109040191491024
:10682000002002910090032269460A73C881012268
:106830000A74059073480690684606F032FA0028FC
:1068400003D0624967A2CB391BE000F04BF96E4AD6
:106850000521012006F0A2FF002803D0E12161A25A
:1068600089000EE0002006F0AFFF59480023674A78
:106870000421243007F04DF8002804D0534959A2D0
:106880008F31FFF747FC04F0F0FB00F046FE01F00B
:1068900025FC002806D0002001F0F1FB02F01BF9D6
:1068A00007B000BD0120F7E75949002008605949A9
:1068B0000120486058490004886058494011086028
:1068C000704710B500F020F90120544AC102803A07
:1068D0001160544A52499160524A08214032116075
:1068E0004D4A010451604B49086030BF10BDFFF7AD
:1068F0001EFFFFF7E6FFFFF724FF00F0E1FA002894
:1069000001D104F0F9FE04F0CBFCFFF7E2FEFFF743
:106910004BFF06F01BFB00280DD105F096F801F0A7
:10692000ABFB002807D005F00FFA05F067FA05F079
:10693000B0FA03F07AF903F0E4FB03F035FC04F05D
:10694000CBF904F0FFF903F069FB03F05BF8FFF704
:1069500050FC07F024F805F0FFF807F031FA05F0D5
:10696000FFF83DDF0028F8D018491EA2A831FFF734
:10697000D1FB0121814018488160704710B500218A
:10698000294A084607F0A6F910BD1CB501910090F0
:10699000264A0821684607F09DF91CBD0EB5112056
:1069A00069460872072222A102A86CDF002843D0A2
:1069B000FF210CA2623164E02865010070200020F4
:1069C000D42B00207D6901004966010016030000F8
:1069D0000020002000040040000500500007005087
:1069E000F02300202E2E5C536F757263655C73720A
:1069F000635C6D61696E2E6300000000D16601006A
:106A0000AB66010025640100B5D6010066060000F2
:106A100040B1004000B0004000B3004080E100E021
:106A2000FF0F000000B500401D6B0100336B01003B
:106A300064752D42616E64000920800168DF0028C2
:106A400003D0FF215A4A65311BE00020FF2100904E
:106A500041316A4601901180FF219131518090802F
:106A6000D18068466ADF002803D0FF21504A6F3189
:106A700007E00320C04367DF002804D0FF214C4A11
:106A80007231FFF747FB0EBD08B50020011F0090D3
:106A9000684601700120014668462031417000209F
:106AA0000146684681706946424805F055FB00285A
:106AB00003D0FF213E4AC2310FE000F048F83F48C2
:106AC0003D4941603E49016001463A48243000F0AA
:106AD000D4FA002803D0364A3A49FFF71BFBFFF7E8
:106AE00059FC08BD35491E200839088088780122E4
:106AF0001043E1221040DF220C3010408870072044
:106B0000C8701020087170472F49012088612F49F3
:106B100000224A60830798604A60704710B50029D8
:106B200004D02BA275210020FFF7F4FA06F06EFEC8
:106B300010BD10B50246082905D0FF212FA216313D
:106B40000020FFF7E7FA11685068884710BD00B5CC
:106B500085B0142168460AF0B6F800216846009115
:106B600001710291642101730120014668461031D0
:106B700041730120014668461031817300200146AF
:106B80006846C17301200146684610310174094806
:106B900069460C3005F020FC002804D0FF21044A8F
:106BA000DB31FFF7B7FA204800F041F905B000BD2E
:106BB000E4690100B02B0020457B01001C2000206F
:106BC0007F7C01001202000000050040000100402F
:106BD0002E2E5C6E726635313832325C496E636CD3
:106BE0007564655C626C655C626C655F737461633F
:106BF0006B5F68616E646C65722E68002E2E5C6E31
:106C0000726635313832325C496E636C7564655C2E
:106C10006170705F636F6D6D6F6E5C6170705F74DB
:106C2000696D65722E6800003B630100FEB5054684
:106C30000826002404F0DBF901283CD028460AF09D
:106C400019F9AC4D0090A100695800980AF02EF98E
:106C500003D9641CE4B2B442F5D3B44201D300209A
:106C6000FEBD002C27D0A34F083F3E5D30460AF002
:106C700001F9019038192038C07F801B0AF0EFF825
:106C80000646A0002F5840198038C06F39460AF0D8
:106C9000A0F831460AF0A5F80446394600980AF0F3
:106CA00098F821460AF09DF801990AF041F80AF097
:106CB000E8F8C0B2FEBD6420FEBDF8B58E4801689C
:106CC0000027002948D007608C4880688C4A012141
:106CD00051604B21890148438A4909F02DFF06463E
:106CE00004F085F9884D894C022822D028680028B4
:106CF00017D0607881006E500621401C09F01CFFFF
:106D00006170002001468A00AA58491C1018062903
:106D1000F9DB062109F010FF064604F054F9361A93
:106D200008E0677000208100401C6E500628FADBE6
:106D3000F3E72F60B0B26080FFF778FF20706268E1
:106D4000002A09D00121714806F0C4FF002803D0B1
:106D50006FA29121FFF7DEF968480760F8BD674927
:106D600001200860644A002111606549086070478D
:106D700070B50446FFF7F3FF0A2002F061FD5E4D97
:106D800002E00A2002F05CFD28680028F9D000200B
:106D900028605A4880685A4A012151604B21890174
:106DA0004843584909F0C8FE208004F020F9022821
:106DB00002D020883C38208070BD5C4901204860AA
:106DC0005B4801680902090A020711430160594939
:106DD000802008607047F1B554480025456055494A
:106DE0000126802080310860434C2560444F7E603E
:106DF000FFF7B5FF0A2002F023FD20680028F9D034
:106E000025603E4880687E604B21890148433D49AA
:106E100009F092FE00990880FFF7CFFFF8BD3749CF
:106E200045484860344900200860704797E710B52E
:106E3000364C60606088FFF7F9FE20706268002AB7
:106E400002D001212046904710BD10B52F48408840
:106E5000002803D12D48801CFFF78AFF2749002016
:106E60000860FFF7AAFF2948344A0121083007F0DB
:106E70006EF9002804D0FF2125A22531FFF74AF939
:106E800010BD2F48807C7047014610B51F48002276
:106E9000806807F0A3F9002804D0FF2129A2383127
:106EA000FFF738F910BD10B51848806807F0D1F920
:106EB000002804D0FF2123A24131FFF72BF910BD98
:106EC00070B501200024C003FFF7DEFF0F4DE1265F
:106ED00036016888B04201D3012406E030BF06F0D5
:106EE0006FFF04F0D1F80028F3D1FFF7DCFF204654
:106EF00070BD0000281E02000071004000750040B7
:106F000000700040FF030000F42B002054200020FC
:106F10002E2E5C536F757263655C7372635C626482
:106F20005F626174746572792E63000000730040C3
:106F300004E400E000E100E0020800002D6E010022
:106F4000BC2B00202E2E5C536F757263655C7372D0
:106F5000635C62645F626174746572792E630000C1
:106F60008D4B07C3704710B50B88012B2ED0102B0B
:106F700016D00022112B1AD0502B10D1CB88048AA6
:106F8000891DA34202D10C8B022C17D08288934218
:106F900005D18369002B02D00A8B1A31984710BDA6
:106FA00089888182C0690028F9D0804710BD0021FE
:106FB000C9438182827500F062FE10BD498B0129B0
:106FC00001D0827510BD0121817510BD7248026823
:106FD000002AFAD081684068904710BD70B500243F
:106FE0000546601C90B00007000F08A910300894F7
:106FF0000870601C0007000F103048708878F92670
:107000003040801C88701C2101A809F05CFE694694
:1070100008791021084369460871029408A804946D
:10702000059407940690287808A98871032069467A
:10703000888411200094087048708878F7213040C7
:10704000801C0840EF2108400126304369468870C3
:1070500014210AA809F037FE09A80A9068460B9087
:1070600069460E8614204C8688862B4668880C3329
:107070000AAA01A9A2DF10B070BD30B5474B0D467A
:1070800004460FCB85B003936B4607C30020C04373
:10709000A0826868A0612868E0610020A075214690
:1070A000684652DF002814D1217868468174012196
:1070B0000182A21C04A90120A0DF002809D12946D1
:1070C0002046FFF78BFF002803D12946204600F019
:1070D0001EF805B030BD1FB5837D002B05D0138889
:1070E000142B04D9072004B010BD0820FBE70023AF
:1070F000009301930293039384896B461C80039150
:10710000029201219970808A6946A6DFEBE770B58B
:107110008EB005461C21684609F0D5FD6846017809
:1071200008200143684601700024019403940494EC
:1071300005940694297808A8817002216846018484
:10714000601C0107090F6846103107940177012080
:107150000146684610314177817FF9200140F720D0
:10716000891C0140EF2001400126314368468177A8
:10717000142109A809F0A7FD08A8099007A80A90FA
:10718000684686851421C485018668882B1D09AA56
:107190006946A2DF0EB070BD0C2C0020481E020014
:1071A000FE4800787047FD4908707047FC48FD496B
:1071B0000088884201D00120704700207047F7B551
:1071C00084B0049815460C46002804D1FF20F6A18F
:1071D000D030FEF7ACFF042C04D0FF20F2A1D13058
:1071E000FEF7A5FFED4C2646A0683036002804D0F7
:1071F000022804D001280CD00DE0A5600BE0012D81
:1072000009D1B088012806D104980068A061012046
:107210000FE0022D0CD0002069468881A06802286A
:107220000AD0002806D004980568002D4AD151E004
:107230000220E06007B0F0BDD8481430C1780129C1
:10724000F8D10288807801282DD00023D349AB20C3
:10725000383108706846007810250009000128437D
:10726000DF25284001256B405B01184383069B0EF8
:10727000684603704B7000274F8050BA8F80C880DB
:1072800008226846828103AAD148FFF724FF00281C
:107290000BD0D049884216D1C049CF4814310222C0
:1072A000FFF75EFEC6E70123D0E7BC48A7601430B5
:1072B000C770E0680128BDD1A0690028BAD0E76096
:1072C000A56005467BE00020B449A0601431E06071
:1072D000C870AFE78720B4A18000FEF728FF6EE0FA
:1072E000AE49082040316A469081012716E068893E
:1072F00000289FD02868002803D1ABA1B748FEF72B
:1073000016FF6889142801D9142100E001466A4655
:1073100091812989081A29684118022703AAAC48D3
:10732000FFF7D9FE00280ED0AA4988424BD1AA48BF
:1073300029460122FFF714FE01212A468904606ACA
:1073400006F04CFF76E7002F39D0012F04D0022F32
:107350000AD0032F33D12AE0B08801282FD1002092
:10736000B080206460642AE0694668898989401A8F
:107370000004000C688122D100273A4611460846D5
:10738000FFF7EEFDA7600121E5612A468904606AE6
:1073900006F024FFE068022811D180481430C0783C
:1073A00001280CD10220A0600020E06036E77B4875
:1073B0001430C178012902D10021A160C170B088C8
:1073C000012894D18CE700273A4611460846FFF77A
:1073D000C7FDA7606968002902D0AF730020884705
:1073E000E0680228AED1E760A06017E738B50D4627
:1073F000040004D1FF206CA1B730FEF798FE012DE8
:1074000008D0022D05D10222009404216846FFF71E
:10741000D6FE38BD00946089002803D05F48406ADA
:1074200006F017FF0122F0E770B5040024D05B4D91
:10743000AB2040352870002068702289100AA8709F
:10744000EA700020216803F02FFE010A29715349D8
:1074500068714888020AAA71E87122896281A08154
:10746000401C488028460121103881800460204655
:10747000FFF7BCFF002070BD072070BD70B504464B
:10748000807B00281BD06089002809D1E07B03287D
:1074900006D2401CE0732046FFF7C6FF00280ED03E
:1074A00000252A4611460846FFF75AFD3B488560ED
:1074B000C560A5736168002901D00020884770BDB0
:1074C00000210160704710B5002809D0012806D1BD
:1074D000334834490088884201D0132166DF10BD4B
:1074E00000F0B4FC00F043FE10BD02F04CFB01F0D4
:1074F00021FA05F0D6FE012039DFBFF34F8F39495D
:107500003748C860BFF34F8FFEE724490120087059
:1075100023481321008866DF704710B532480021E8
:107520008173C1731D48314A243006F010FE0028D3
:1075300004D0FF211CA22331FEF7ECFD17482C4A92
:107540000021283006F003FE002804D0FF2116A2F7
:107550002631FEF7DFFD1148264A00212C3006F0C7
:10756000F6FD002804D0FF210FA22931FEF7D2FD3D
:10757000002010BD70B5094C0E46E169002961D0AC
:10758000898981425ED1606A06F063FE0025002E83
:107590003AD0E069C17B032942D32DE0602000206E
:1075A00002200020FFFF00002E2E5C536F757263D7
:1075B000655C7372635C62645F636F6D6D756E6949
:1075C000636174655F70726F746F636F6C2E6300BC
:1075D000D42B002003300000ED73010031020000C5
:1075E0000400FA0500ED00E0E02C00207D740100AD
:1075F000C1740100C77401002A4611460846FFF70E
:10760000AFFCA560E56016E02A4611460846FFF784
:10761000A7FCE06985734168002913D0012010E0C0
:10762000491CC173FFF700FF00280BD02A46114602
:107630000846FFF795FCE06985734168002901D091
:107640000020884770BDF8B5050006D0F84C00272B
:10765000A07B002803D00420F8BD0720F8BD01203E
:10766000A073F44EAB20307077702A89100AB07086
:10767000F2700020296803F017FD010A31713146CC
:10768000707140394888020AB271F0716A686260AC
:107690002A6822602A8922812A896281E773A0816F
:1076A000401C48803046012110388180046020460B
:1076B000FFF79CFE0020F8BD7047F8B500240628AF
:1076C00012D004DC002809D0012804D106E00928E2
:1076D00016D00A2828D007242046F8BD002AFBD15E
:1076E000002003F07DF8F7E7012AF5D10978D248A8
:1076F000012902D000210170EEE701210170EFE7BE
:107700000C2AE9D18A78C8781202024348780978AD
:10771000000410430D06054304F017FCA842DBD01B
:10772000284604F00FFCD7E70A2AD5D10878009044
:107730008878CA7800061204024308794F7A030257
:1077400048791343184306468879CB7900020343EE
:10775000087A4D7802021743184602F019F9B74922
:107760003846484302F017F930460A21484302F0F0
:1077700015F9009802F015F9284602F01DF9ABE75B
:10778000FEB500250C46052877D006DC01280BD075
:1077900002282ED0032804D16AE0102867D02028C0
:1077A0007ED007252846FEBD042A7DD100F021FEAB
:1077B000A178E67809020E436178C07809040E4387
:1077C000217809060E43B102C90E884205D0002077
:1077D00004F0B8FB002002F00CFC304600F020FF63
:1077E00000F04AFC0028DDD002F0CAF9002876D06B
:1077F000D8E70521104609F09FF9002954D1C7B2F6
:10780000082F00D90827384604F035FA002628E06A
:10781000B0003218A05C0021121900910190537839
:1078200094461A0A1B0610431943624600910190C0
:107830009278130C12041143184362460091019090
:10784000D278130E12021143184362460091019040
:107850001279304611430091694604F01DFA761CF6
:10786000F6B2BE42D4D304F03BFA9BE705E019E040
:10787000002A19D100F057FF94E7042A14D1A07808
:10788000E17800020843617809040143207800068A
:10789000084300D1694804F0DEFA04F0E5FA81E714
:1078A00020E001E0042A01D009257BE700200090B8
:1078B000E0780090A17809020843009061780904FB
:1078C000084300902178090608430090684604F0B8
:1078D0005EFA04F066FA00F081FF002888D002F01A
:1078E000A4F95FE7012AC0D108780407240F022C0D
:1078F000BBD8204604F01EFB002C03D0012004F06E
:1079000011FB4FE70020FAE710B5012000F0B7FBAC
:10791000002004F0FFFA002004F014FB02F033F919
:1079200004F0EFFA02F09EF910BD3EB5404A012383
:10793000C83A13700023537002249470D3701471EA
:107940005071917107206946019300920881684641
:10795000FFF779FE3EBD3EB5012819D0112816D19A
:1079600033480121C838017000224270122383700D
:10797000C2700423037141718171C1710172009061
:1079800001920920694608816846FFF75CFE3EBD0A
:1079900003F027FA0446012003F020FAFFF771FAFA
:1079A000282807D201210846FFF7BFFF204603F031
:1079B00015FA3EBD00210846FFF7B7FF1D4901201B
:1079C000403908701E4805210022C903006806F0EE
:1079D00005FC3EBDF7B50D4600280BD0002D09D0A3
:1079E000144A0178403A1369C21C002B04D0012BC1
:1079F0000CD13CE00720FEBD032908D0062913D096
:107A0000012943D010292ED00A2970D085E0517861
:107A100012780902114349BACA058378411DD20D73
:107A2000184600F065F978E00526841C18E000008F
:107A3000E02C0020A02000203C2100201027000086
:107A4000102000206078A1780002401887B23946E3
:107A5000204603F09BFDF019C01CE41986B2E41C1B
:107A6000A81BEFD559E0807804F092F855E005297D
:107A70002FD006DC012909D002290BD004294CD1D2
:107A800015E00A2933D0FF2947D134E08078FFF789
:107A900062FF42E0517812780902114349BACA05DF
:107AA0008378411DD20D1846FFF76AFE35E08078D5
:107AB000012804D0022807D003282ED104E0002199
:107AC000052003F09DF928E003F071FB00F0BEF9FA
:107AD00023E0517812780902114349BACA05837824
:107AE000411DD20D1846FFF7E8FD16E0FFE780784C
:107AF00004F0ABFA11E0012D0FD1C078012804D0B9
:107B0000022805D0032808D10CE00122114601E02B
:107B100001220221032000F098FA0298002101605E
:107B20000846FEBD01220321F4E710B59D4A91707D
:107B300010800120D07002211046FFF757FC002072
:107B400010BD7047FEB5974C1646143C0F46A06A10
:107B500006F0F7FB002802D1A06A06F07AFB226A41
:107B6000002591490091002A12D0012A47D0022A0B
:107B70000DD1787869460871C10608D58006C10F15
:107B8000F879BA790002104340BAFFF7F3FCFEBD62
:107B90003978AB29FBD18448A5800838324639466C
:107BA00009F078F88048A6800838418848BA08303B
:107BB000801B00B2E08000281EDC7B4E6A46083E37
:107BC00070781071C20604D58006C10F2562F08856
:107BD000DAE702202062A580B08840BA2DE0F08864
:107BE000012140BAFFF7A1FF70886E4A41BA0C32FA
:107BF0000098FFF7EFFEFEBD012020622FE06A48EB
:107C0000A188083840183246394609F043F8A08860
:107C10008019A080E088801B00B2E08000281EDC74
:107C2000614E6946083E70780871C106CCD40220C6
:107C30002062A580B088718840BA4ABA009900F0E5
:107C4000A5F80028CBD02562F088002140BAFFF7C4
:107C50006CFF0021554A084606F03CF8FEBD514A2B
:107C600001210C328904A06A06F0B8FAFEBD4D4825
:107C70001438407870474B4914394870704770B5D4
:107C800000252A4628461146FFF76AF9454C143C60
:107C90002069012800D160702561A5614248A56076
:107CA0001838E5608573C573E069002805D08573D1
:107CB0004168002901D0002088472562A580E58021
:107CC000002004F05BF9374805804580606A06F0C3
:107CD00038FB002802D1606A06F0BBFAA06A06F001
:107CE00030FB002802D1A06A06F0B3FA002070BD74
:107CF000F7B52C4D0026143D0F460446012801D04F
:107D0000032C02D1E86A06F0A4FA012C02D0032C5D
:107D10002FD11BE00298202815D1002F13D0FFF798
:107D2000B0F814280FD320223946214808F0B2FFBA
:107D30000F2100224904E86A06F050FA00210120D0
:107D400003F05EF815E000F012FA12E00298202825
:107D500007D1002F05D02021384600F035FA060063
:107D600009D000F081FA4B2101224904E86A06F0AB
:107D700035FA3046FEBD03F0DFFE002801D103F0E6
:107D8000FCFC00F05CFA01202861F2E710B5044623
:107D9000002003F089F9A04201D1002010BD0B2082
:107DA00010BD000074200020F82C0020437B01004F
:107DB000542D002010B5042917D10068012815D0D2
:107DC000022812D100F058F900280ED003F00FF964
:107DD00002280AD100F03BF905281ED006281CD045
:107DE00003F052FD002002F0FBFC10BD00F02FF963
:107DF000044601280ED000F03FF90028F5D0052CEC
:107E00000BD0062C09D00A2CEFD100210A2002F059
:107E1000F7FF10BD00F0C1F910BD03F054F810BD1C
:107E200070B500218F4B904C01220546CD40ED07E7
:107E3000ED0F5D5C164602D0AE40E66001E0AE405C
:107E4000A660491CC9B20529EFD370BD10B5874C97
:107E5000E06806F0FEF9FF20A0600020A0800A2064
:107E6000207003F0C4F8022803D0012003F0B3F817
:107E700010BD0020FFF7D4FF10BD70B57B4DA86882
:107E80000C2849D009DC030009F059FB0C1F2225FE
:107E9000291F2C3033363940435A122859D007DC79
:107EA0000D38030009F04BFB053B3E414F524C009F
:107EB000152857D004DC13284ED0142840D14EE0AA
:107EC000162805D064283BD11CE0664C443C0BE0EE
:107ED000644C0E3401E0634C1834052128E0614CF9
:107EE0002234FAE75F4C403C022121E05D4C3C3CEF
:107EF000FAE75C4C383CF7E75A4C343CF4E7594C11
:107F0000303CF1E7574C463C012111E0554C183C00
:107F1000EAE7544C143CE7E7524C103CE4E7514C80
:107F20000C3CE1E74F4C083CDEE74E4CA41D04211D
:107F3000002C05D0A8886A88904216D3002A14D055
:107F4000FFF784FF70BD474C241FCDE7454C2C3C08
:107F5000CAE7444C283CC7E7424C243CC4E7414CA8
:107F6000203CC1E73F4C1C3CBEE708F0E5FD480063
:107F7000205AFFF755FFA888401CA88070BDF8B5AF
:107F800007463A4C0020A080A76015460E46E068E0
:107F900006F0D7F9002802D1E06806F05AF9B100DE
:107FA00070047118000C89B20C2F22D009DC3B0040
:107FB00009F0C5FA0C1F2121211F1F1F1F1F1F1FA2
:107FC0001F24122F15D007DC0D3F3B0009F0B7FA34
:107FD0000511112211111600152F0AD004DC132FE0
:107FE00007D0142F0AD104E0162F04D0642F05D136
:107FF00003E0608002E0618000E06680A068FF2806
:1080000007D00020FFF739FF00222946E06806F07C
:10801000E5F8F8BDB000ECE7F8B51D4616460F468A
:10802000044602F0E4FF022801D0042C0BD80F48CC
:1080300001788C4207D804702A4631463846FFF74B
:108040009EFF0120F8BD0020F8BD094BE4E707487A
:1080500000787047054810B5064A01210C3006F03B
:1080600076F810BD9E1E020000050050A8200020DA
:10807000333300007B7E0100864840787047854995
:10808000487070471CB500221146104605F04AF9A9
:108090006946012408802407606901A91238C0B22A
:1080A00005F0B5F9002818D160691238C0B205F0A2
:1080B00097F9019808227849001D05F07FF90028FA
:1080C0000BD16A462021744805F02CF969460880D6
:1080D00072494118019805F06CF91CBD1CB50022CD
:1080E0001146104605F01EF9694608800120000778
:1080F000406901A91238C0B205F089F9002815D1EC
:108100000199674B0868020C9A4210D184B2202270
:108110006148091D08F0BEFD6A4620215E4805F051
:1081200001F969460880A04203D100201CBD401C13
:1081300001D00B201CBD05201CBD0EB559480321E4
:1081400001700021417002228270C170012202710F
:108150004171019100900620694608816846FFF749
:1081600072FA0EBD50481321008866DF70470EB5C5
:108170004C48032101700021417002228270C170BD
:108180000121017141714949019100900620694620
:1081900008816846FFF757FA0EBD10B544480068DD
:1081A00006F057F83B480124047001F09AFFFFF7EE
:1081B0004DFEFFF7C2FF0021022002F021FE3D48E4
:1081C0000460FFF7A1FB10BDFEB50D46060001D00F
:1081D000202D01D00720FEBD00221146104605F0DB
:1081E000A1F86946088001200007406901A91238FA
:1081F000C0B205F00CF90400EDD10198284A0368DB
:10820000190C91420AD19FB26A462021001D05F047
:1082100089F869460880B84202D105E05B1C01D0AC
:108220000B20FEBD0520FEBD01992A463046091DE2
:1082300008F068FD002800D00B242046FEBD0EB5D6
:108240001848032101700021417004228270C1701E
:108250000122027141710191009006206946088156
:108260006846FFF7F0F90EBD0EB50E480321017008
:108270000021417004228270C1700122027142719A
:10828000019100900620694608816846FFF7DBF9F6
:108290000EBD0000B8200020542D00200000DE4557
:1082A000DE450000182C002002200020658101001E
:1082B0008C2000207020002002461F20012907D0BA
:1082C000062901D9491EC9B2C90700D01E2070472E
:1082D0001C32D0B27047F8B50A460446FE49104633
:1082E00008F02AFC0D4606463C21284608F024FCEE
:1082F0002171E1210901284608F01EFC05460846C7
:108300003C2108F019FC6071A5717D200001B5B217
:1083100020800FE0002F26D06421304608F00CFCAE
:10832000002901D0B0071ED0FF206E30281A761C1D
:1083300085B226802088FF210646913108F0FCFB9B
:108340000F0013D06421304608F0F6FB002901D05D
:10835000B0070BD0FF206E30A842DBD90020FF27EA
:10836000A07091371DE0FF206F30DFE7FF206F30F6
:10837000F2E720883946064608F0DEFB002927D0C0
:108380006421304608F0D8FB002901D0B0071FD087
:108390000020A178FFF790FF281A85B2A078401C32
:1083A000A07020883946064608F0C6FB002911D087
:1083B0006421304608F0C0FB002901D0B00709D085
:1083C0000020A178FFF778FFA842D2D9E570F8BD68
:1083D0000120DEE70120F4E710B5BF4908F0ACFB4F
:1083E000072108F0A9FB481D072108F0A5FB084656
:1083F00010BD10B5B948C1681030FFF76CFFB74821
:1084000010308178491C8170C178491CC17010BD41
:10841000F8B5FFF7EEFFB14C0546207800280CD0E8
:10842000401E2070E06862680146B4398A4204D177
:1084300060600021062002F0E3FC00264CE030469C
:1084400003F022FC0068A979C001C00E884241D126
:10845000304603F019FC006869790003800E8842F9
:1084600038D1E068FFF7B8FF0746304603F00CFC50
:1084700000780121B9400840400623D1304603F07E
:1084800003FC0068E9788000C00E884222D13046A3
:1084900003F0FAFB01680079890880070843A9788E
:1084A000000F884216D1304603F0EEFB01680079D8
:1084B000090A000608437D21800E09014018298819
:1084C000884207D1E06860600021062002F098FC35
:1084D00000202070761CF6B203F0CAFBB042AED882
:1084E000F8BD10B57D4CE068401CE06003F038FB3F
:1084F0003C21E06808F020FB002904D01E2901D1AE
:10850000FEF72DFC10BDFEF72AFC01F039FB002818
:1085100002D0002001F027FDFFF77AFF10BD10B553
:108520006E487D2109011030018000218170C170E9
:10853000817141710171694C694AE160012108381A
:1085400005F005FE002803D066A2CC21FDF7E2FD70
:1085500001210022C903A06805F040FE002803D0D5
:1085600060A2CE21FDF7D6FD10BDF8B50546810607
:108570000005800E3C225043890E4118E803E12299
:10858000C00E12015043401800907D20AE0E000135
:108590003018FF2100270446913108F0CDFA002958
:1085A00015D02046642108F0C7FA002901D0B00791
:1085B0000DD00023A8024849C00E48430099401836
:1085C000454949424418A801050F6D1E09E00123E1
:1085D000F0E7F9B21846FFF76FFE3F494843041928
:1085E0007F1CBD42F5D8002514E07D200001FF214D
:1085F00028189131074608F09FFA00290ED064210F
:10860000384608F099FA002901D0A80706D03E485C
:1086100024186D1CAE42E8D82046F8BD3B48F7E769
:10862000F8B5054681060005800E3C225043890EB0
:108630004118E803E122C00E120150434018009097
:108640007D20AE0E00013018FF2100270446913135
:1086500008F072FA002915D02046642108F06CFA5F
:10866000002901D0B0070DD00023A8021A49C00E7E
:10867000484300994018184949424418A801050F79
:108680006D1E09E00123F0E7F9B21846FFF714FE6A
:108690001149484304197F1CBD42F5D8002514E058
:1086A0007D200001FF2128189131074608F044FA87
:1086B000002936D06421384608F03EFA002901D05E
:1086C000A8072ED0104824186D1CAE42E8D8034DE0
:1086D000EC60A8681CE0000080510100BC20002074
:1086E000E38401002E2E5C536F757263655C7372B8
:1086F000635C62645F77616C6C5F636C6F636B5F1C
:1087000074696D65722E63008033E1010085E201BA
:1087100005F09FFD01210022C903A86805F05EFD58
:10872000F8BD3448CFE7FEB5334D0220287000264F
:108730006E700420A870EE7003F09AFA8100401861
:10874000287100242CE0204603F09EFAA100611855
:1087500000794F197871204603F096FA01460068B7
:108760000979000E09020843B871204603F08CFA1B
:10877000014600680979000C09040843F871204695
:1087800003F082FA014600880979000A09060843C5
:108790003872204603F078FA0078641C7872E4B2EC
:1087A00003F066FAA042CED8019600952879694672
:1087B000401D08816846FEF746FFFEBD0F48C068B1
:1087C000704710B50D4CE060A06805F042FD012136
:1087D0000022C903A06805F001FD10BD10B5FFF728
:1087E00008FE00887D210901884201D1002010BDCA
:1087F000012010BD0085E201182C0020BC200020C3
:10880000002208B51146104601F028F800287DD056
:10881000002001F087F869460F2000F0A7F9002832
:1088200003D1CAA1B620FDF782FC68460078332840
:1088300003D0C6A1B720FDF77AFC0021202000F06C
:10884000ABF9002803D1C1A1B920FDF770FC0021CC
:10885000212000F0A1F9002803D1BCA1BA20FDF726
:1088600066FC0021222000F097F9002803D1B7A16F
:10887000BB20FDF75CFC0021232000F08DF90028CF
:1088800003D1B2A1BC20FDF752FC0021242000F04E
:1088900083F9002803D1ADA1BD20FDF748FC0021DC
:1088A000252000F079F9002803D1A8A1BE20FDF70A
:1088B0003EFC042000F082FD002803D1A3A1BF20CC
:1088C000FDF735FC072000F0C1FA002803D19FA175
:1088D000C220FDF72CFC022000F06CFA002803D126
:1088E0009AA1C320FDF723FC052000F0C9F9002858
:1088F00003D196A1C520FDF71AFC012000F0BEFAB5
:10890000012000F0D3FA002805D100E010E08FA18B
:10891000C720FDF70CFC022000F050FD002000F005
:10892000E3FB002000F0A5FC002001F010F801207E
:1089300008BD65E710B5002000F0F4FF00F062FC10
:10894000002804D1FF2081A10C30FDF7F0FB0021AD
:10895000202000F021F9002804D1FF207BA10D3058
:10896000FDF7E5FB0021212000F016F9002804D1D5
:10897000FF2076A10E30FDF7DAFB0021222000F067
:108980000BF9002804D1FF2070A10F30FDF7CFFBB9
:108990000021232000F000F9002804D1FF206BA162
:1089A0001030FDF7C4FB0021242000F0F5F800286A
:1089B00004D1FF2065A11130FDF7B9FB002125206E
:1089C00000F0EAF8002804D1FF2060A11230FDF782
:1089D000AEFB042000F0F2FC002804D1FF205BA1D4
:1089E0001330FDF7A4FB002000F0B1FF10BD70B5FF
:1089F00004460D46002000F095FF042C02D0052C03
:108A000017D10AE0202000F06FFB022000F08FFB5E
:108A1000042000F099FB052009E0202000F064FB11
:108A2000032000F084FB0E2000F08EFB1E2000F0DF
:108A300094FB012D02D1302000F06CFB01240020BA
:108A400000F085FF204670BD10B50446002000F000
:108A500069FF012000F0ECFB002C01D0802000E039
:108A6000002000F02FFB002000F071FF0121052005
:108A7000FFF7BDFF10BD10B50446002000F052FF07
:108A8000002C13D0212000F07FFC002000F089FC96
:108A9000002000F004FC002000F019FC012000F090
:108AA000C7FB402000F0FCFA2A2003E0002000F081
:108AB000F7FA802000F0DDFB002000F048FF10BD39
:108AC00010B5002000F02EFF002000F073F9002008
:108AD00000F03DFF10BD10B5002000F023FF022084
:108AE00000F068F9002000F032FF10BD7CB50546AB
:108AF000002000F017FF00246846047001A9402000
:108B000000F007FE684600F031FE68460079012853
:108B100002D120206946087068460078124E81080C
:108B200089006846017006E006206043801900F065
:108B300073FD641CE4B2684600788442F4D368464E
:108B400000782870002000F002FF7CBD2E2E5C53C0
:108B50006F757263655C7372635C62645F68616C9D
:108B60005F6163632E630000742D002010B58022C6
:108B70001043FD4A0C4610700221FC4BFC4800F0EB
:108B8000A0FE002803D1FBA13920FDF7D0FAF74859
:108B900040782070012010BD10B5FF4C02222270D9
:108BA000FE4B00221A70F04AF04B10705170217881
:108BB000EF4800F086FE002803D1EEA15220FDF719
:108BC000B6FA012010BD10B501460F20FFF7CEFF09
:108BD000002800D0012010BD10B501460720FFF786
:108BE000C5FF002800D0012010BD38B50C46054651
:108BF00069460720FFF7BAFF002811D000200121A5
:108C0000802D0ED0402D16D0202D18D0102D1AD02A
:108C1000082D1CD0042D1ED0022D20D0012D26D0D1
:108C200038BD6A461278D309DB0124E0217000E0E8
:108C30002070012038BD6B461A78402312E06B4645
:108C40001A7820230EE06B461A7810230AE06B4650
:108C50001A78082306E06B461A78042302E06B4674
:108C60001A7802231A406B461A70E1D0DEE76A4692
:108C70001278D307DB0F6A461370002BD8D0D5E7E4
:108C800038B5044669462020FFF770FF00280ED053
:108C90006846007821010007000F0143C9B2684609
:108CA00001702020FFF778FF002800D0012038BD98
:108CB00038B5044669461F20FFF758FF002810D03A
:108CC00068460078BF210840A1010143E001084344
:108CD000C1B2684601701F20FFF75EFF002800D078
:108CE000012038BD38B5044669461F20FFF73EFF16
:108CF00000280ED068460078E1014006400E01438E
:108D0000C9B2684601701F20FFF746FF002800D057
:108D1000012038BD1CB5044669460820FFF726FF30
:108D2000002833D001A90920FFF720FF00282DD00B
:108D300069460879097800020843000920806946DD
:108D40000A20FFF713FF002820D001A90B20FFF70E
:108D50000DFF00281AD069460879097800020843F7
:108D60000009608069460C20FFF700FF00280DD045
:108D700001A90D20FFF7FAFE002807D069460879FF
:108D80000978000208430009A08001201CBD1CB521
:108D9000044601A90C20FFF7E9FE002809D0694626
:108DA0000D20FFF7E3FE002803D06846007820700E
:108DB00001201CBD1CB5044669462020FFF7D6FEE5
:108DC000002819D001A92320FFF7D0FE002813D0D6
:108DD0006846017872480A0905D102781209120121
:108DE0000A4369460A70002C07D0F7210823012C9A
:108DF00014D0022C09D000201CBD694609780170EE
:108E00000807000F6946087010E0684602780A40BB
:108E1000027002790A401A43027107E06A4610782C
:108E200008401843107010790840107168460178A6
:108E30002020FFF7B1FE0028DED06846017923200C
:108E4000FFF7AAFE0028D7D001201CBD38B5044684
:108E500069462020FFF78AFE00280ED06846007879
:108E60006107C008C000490F014368460170202017
:108E7000FFF792FE002800D0012038BD38B5044627
:108E800069462320FFF772FE00280ED0684601785D
:108E9000CF20014020010843C1B268460170232061
:108EA000FFF77AFE002800D0012038BD38B504460F
:108EB00069462320FFF75AFE00280ED06846007846
:108EC000E1014006400E0143C9B26846017023200B
:108ED000FFF762FE002800D0012038BD38B50446F7
:108EE00069462320FFF742FE00280ED0684601782D
:108EF000BF200140A0010843C1B268460170232091
:108F0000FFF74AFE002800D0012038BD38B50446DE
:108F100069462320FFF72AFE00280ED06846017814
:108F2000F920014060000843C1B268460170232067
:108F3000FFF732FE002800D0012038BD38B50446C6
:108F400069462120FFF712FE00282DD068460178DF
:108F5000FB200140A0000843C1B2684601702120F7
:108F6000FFF71AFE00281DE0D5200020DD2000209C
:108F7000003000402E2E5C536F757263655C737217
:108F8000635C62645F6C69733364685F64726976A2
:108F900065722E6300000000E6200020E52000201E
:108FA000D420002000D0012038BD38B504466946E1
:108FB0002120FFF7DBFD00280DD06846007840082F
:108FC00040002043C1B2684601702120FFF7E4FD54
:108FD000002800D0012038BD38B50446694621205C
:108FE000FFF7C4FD00280ED068460178FD2001403F
:108FF00060000843C1B2684601702120FFF7CCFD34
:10900000002800D0012038BD38B50446694621202B
:10901000FFF7ACFD00280ED068460078A10180065D
:10902000800E0143C9B2684601702120FFF7B4FDEC
:10903000002800D0012038BD38B50446032801D9E6
:10904000002038BD69462120FFF790FD0028F8D0A8
:1090500068460078CF21084021010143C9B2684623
:1090600001702120FFF798FD0028EAD0012038BDCB
:1090700038B5044669462120FFF778FD00280ED058
:1090800068460178F7200140E0000843C1B2684615
:1090900001702120FFF780FD002800D0012038BD9D
:1090A00038B5044669462220FFF760FD002808D045
:1090B0006846047021462220FFF76EFD002800D08C
:1090C000012038BD38B5044669462520FFF74EFD1E
:1090D000002808D06846047021462520FFF75CFD73
:1090E000002800D0012038BD38B504466946382034
:1090F000FFF73CFD00280CD0684600788109890103
:109100002143684601703820FFF746FD002800D053
:10911000012038BD10B57F2801D9002010BD0146BF
:109120003A20FFF739FD0028F8D0012010BD10B516
:109130007F2801D9002010BD01463B20FFF72CFD00
:109140000028F8D0012010BD10B501463C20FFF7E3
:1091500023FD002800D0012010BD10B501463D20A0
:10916000FFF71AFD002800D0012010BD38B50446D5
:1091700069463920FFF7FAFC002840D0684600789D
:109180004106490E68460170480601D4002034E0CB
:10919000880619D508070BD5480701D52C202CE0E7
:1091A000880701D52A2028E0C80729D0292024E0F3
:1091B000480701D5242020E0880701D522201CE0A3
:1091C000C8071DD0212018E008070BD5480701D596
:1091D0001C2012E0880701D51A200EE0C8070FD026
:1091E00019200AE0480701D5142006E0880701D5B8
:1091F000122002E0C80703D011202070012038BDE2
:10920000002038BD08B569462420FFF7AFFC0028D0
:109210000DD0684600784106490E8020014368461B
:1092200001702420FFF7B8FC002800D0012008BD01
:1092300038B5044669462420FFF798FC00280ED074
:1092400068460178F7200140E0000843C1B2684653
:1092500001702420FFF7A0FC002800D0012038BDB9
:1092600008B569463120FFF781FC002800D00120B5
:1092700008BD38B5044669463020FFF777FC002862
:109280000CD06846017840200140214368460170B7
:109290003020FFF781FC002800D0012038BD38B510
:1092A000044669463020FFF761FC00280ED068466E
:1092B0000078A1018006800E0143C9B268460170A2
:1092C0003020FFF769FC002800D0012038BD7CB5B4
:1092D000044669463020FFF749FC002835D001A933
:1092E0002420FFF743FC00282FD0BF214025FB207E
:1092F000012C04D0022C07D0002C10D016E06B46B5
:109300001A780A402A430DE06A4613780B402B4333
:1093100013701179014004200143117106E06B467E
:109320001A780A401A701979014019716846017853
:109330003020FFF731FC002807D06846017924204F
:10934000FFF72AFC002800D001207CBD38B5044678
:1093500069463120FFF70AFC002814D069460878D6
:109360004006400E087048280BD006DC412808D083
:10937000422806D0442805D103E0502801D06028B7
:1093800000D12070012038BD10B57F2801D9002000
:1093900010BD01463220FFF7FFFB0028F8D0012066
:1093A00010BD10B57F2801D9002010BD0146332023
:1093B000FFF7F2FB0028F8D0012010BD38B5BF241C
:1093C000042809D04025002823D001283CD00228B9
:1093D00057D003287BD077E069462E20FFF7C6FBE5
:1093E000002872D068460078C106C90E6846017030
:1093F0002E20FFF7D1FB002867D069462420FFF715
:10940000B5FB002861D06846017821400170242016
:1094100056E069462420FFF7A9FB002855D068468E
:1094200001782140294301702420FFF7B5FB002873
:109430004BD069462E20FFF799FB002845D068469F
:109440000078C106C90E38E069462420FFF78EFB7C
:1094500000283AD06846017821402C46214301700B
:109460002420FFF799FB00282FD069462E20FFF714
:109470007DFB002829D0684600782146C006C00E32
:109480001AE069462420FFF771FB00281DD06846CA
:1094900001782140294301702420FFF77DFB00283B
:1094A00013D069462E20FFF761FB00280DD06846D7
:1094B0000078C006C00E80210143684601702E204E
:1094C000FFF76AFB002800D0012038BDFFE769469E
:1094D0002420FFF74BFB0028F7D068460178214095
:1094E000294301702420FFF757FB0028EDD069467F
:1094F0002E20FFF73BFB0028E7D068460078C00627
:10950000C00EC021D8E738B5044669462E20FFF7C3
:109510002DFB0028D9D068460178DF20014060018A
:109520000843C1B2684601702E20FFF735FB0028C2
:10953000CBD00120C9E738B504461F2801D9002047
:10954000C3E769462E20FFF711FB0028BDD068460F
:109550000078410949012143684601702E20FFF738
:109560001BFB0028B1D00120AFE710B50146272032
:10957000FFF7FCFA002800D0012010BD38B50C46DA
:10958000054669462720FFF7F1FA00289DD0002103
:109590000122102D23D008DC012D34D0022D2AD039
:1095A000042D24D0082D06D11DE0202D13D0402DF0
:1095B0000DD0802D01D0002087E768460078C309D0
:1095C000DB0124E0227000E0217001207DE76B4682
:1095D0001878402312E06B46187820230EE06B4683
:1095E000187810230AE06B461878082306E06B46CB
:1095F0001878042302E06B461878022318406B4663
:109600001870E1D0DEE768460078C307DB0F6846D4
:109610000370002BD8D0D5E71CB504468349E82059
:10962000087007216B46814A814800F04AF90028FA
:1096300003D180498048FCF77AFD684681784278FA
:10964000080600141043208068460179C278080695
:109650000014104360806846827941791006001436
:109660000843A08001201CBD10B501463120FFF742
:109670007DFA002800D0012010BD38B50C46054603
:1096800069463120FFF772FA00280FD0002001212F
:10969000402D0CD0202D13D0102D15D0082D17D013
:1096A000042D19D0022D1BD0012D21D00DE76B46C2
:1096B0001A78402317E0217000E02070012004E7B1
:1096C0006B461A7820230EE06B461A7810230AE0C6
:1096D0006B461A78082306E06B461A78042302E0EA
:1096E0006B461A7802231A406B461A70E5D0E2E7FF
:1096F0006A461278D307DB0F6A461370DDD0DAE7CB
:1097000010B501462F20FFF731FA002800D00120C4
:1097100010BD38B50C46054669462F20FFF726FADE
:10972000002807D000200121802D04D0402D0CD02E
:10973000202D12D0C9E66A461278D309DB0110E069
:10974000217000E020700120BFE66B461A784023AC
:109750001A406B461A70F5D0F2E76A461278D307C2
:10976000DB0F6A461370002BECD0E9E738B50446EE
:1097700069462F20FFF7FAF9002806D069460878D5
:10978000C006C00E0870207001209EE638B5044661
:1097900069462320FFF7EAF900280DD068460078D3
:1097A000400840002043C1B2684601702320FFF703
:1097B000F3F9002800D0012087E610B50120FFF75B
:1097C00077FA002804D11C481A49F830FCF7AFFC9E
:1097D00047212020FFF7E0F9002804D11648154959
:1097E000FB30FCF7A4FC00212120FFF7D5F900286D
:1097F00003D110491148FCF79AFC00212220FFF701
:10980000CBF9002804D10D480A49801CFCF78FFCD5
:1098100008212320FFF7C0F9002804D10748054993
:109820000E30FCF784FC012010BD0000D520002084
:1098300000300040748F0100B1050000B106000047
:1098400031B5054C04E0401E00902046FCF742FC78
:1098500000980028F7D138BDE703000070B5052552
:1098600001242D02002816D043480126F60743198B
:109870005E62002906D001291DD002291DD00329CE
:109880001DD00021002A00D0214359650022FF216C
:1098900009310A5070BD3A4B384804269E600326B1
:1098A000DE6015261E610123364E9B05B360364EE1
:1098B00016233360D9E70221E4E70421E2E7062119
:1098C000E0E7FFB58C460025162401212D4E8905C1
:1098D00096462B46F16031154718FF3001301AE0EB
:1098E0007246D15CF9610322120300E06D1C8168AD
:1098F000002901D19542F9D3954205D10120A0401C
:10990000B060002004B0F0BD00218160B969039A05
:10991000D1545B1C9BB26345E2D30120A040B060F0
:109920000120EFE70121002805D01348052212028B
:10993000801801607047154A10481160121F1160AD
:10994000124B002244331A601A1D1160EEE7002802
:1099500006D00949052200201202891808607047C4
:109960000A4A02200549103A1061D060074A303295
:1099700050619061EEE70000004000400030004080
:109980000035004000050050E8200020100700507E
:10999000FE49C8807047FD4948617047FB498861AE
:1099A000704710B5F94BFA4C403359688007214095
:1099B000C00A0143596010BD10B5F44B7824403300
:1099C0005968E44300072140400E0143596010BD2F
:1099D000EE48C0887047ED4840697047EB488069A1
:1099E000704710B5E94C207800280AD0E06904F0EF
:1099F00030FC002803D0E7A29E21FCF78BFB00205F
:109A0000207010BD10B5E14C207800280CD1002248
:109A1000E849E06904F0E2FB002803D0DDA2AD21B3
:109A2000FCF778FB0120207010BD10B5D7480289E3
:109A300043899A4201D9114600E01946C1818489BF
:109A4000A14200D82146C181914201D1002010BD20
:109A5000994201D1012010BD022010BDF8B5064683
:109A60000068022803D0CBA1C620FCF760FB726817
:109A7000002A5BDDC54CE18820462030002902D158
:109A800043785B1C437043780125002B00D145705F
:109A90005018E08002F059FA7168401802F052FA4A
:109AA000B068002802DD61694018606130690028F3
:109AB00002DDA1694018A061F068002804D00128E7
:109AC00006D002280BD107E02089401C208106E047
:109AD0006089401C608102E0A089401CA081FFF7E2
:109AE000A4FFAA4BAA4E4033596880073140C00AF0
:109AF0000143B14800260140E0880005400B0143C6
:109B0000596002F022FA074602F0A2F9874202D316
:109B1000A07800280BD002F018FA054602F098F958
:109B2000854200D2A670002000F05AFEF8BDA57054
:109B30000021092001F064F9F5E710B5044600683A
:109B4000012804D0FF2093A10230FCF7F0FA8F49DE
:109B50002079C870204601F04DF8002000F040FE4A
:109B600010BD10B504460068022802D12046FFF758
:109B700075FF2068012802D12046FFF7DEFF10BDE7
:109B800082484078704710B580490020487005F041
:109B9000DCFD10BD10B5FEF711FE00217D227B4CCF
:109BA000D2000B4607F018F86163206310BDF8B5CA
:109BB00000680102CF0D41048E0D41004D0EC40F0F
:109BC000002D00DC1925002E00DC4126002F00DCD2
:109BD000AA27002C01D100D001246C48407800282D
:109BE00001D0FFF7D0FF2B463246394619200094AA
:109BF00005F079FD002804D0FF2066A1A430FCF711
:109C000096FA624801214170FFF7C4FF00216B48BA
:109C100005F0AAFD002804D0FF205EA1AA30FCF7C1
:109C200086FAFEF758FF0020F8BD584810B52030DE
:109C30004078002803D100F08FFF00F0E8FE534881
:109C400024304088002801D100F081FF5C48006882
:109C50004088002801D101F081FE02F095F8FFF75D
:109C6000A6FF10BD10B500F077FF00F070FF01F007
:109C700075FE00F0CCFE45480021C1808161416144
:109C8000818141810181084602F05CF900F008FA07
:109C900000F0E6F9012010BD08B53C48C078032863
:109CA00004D00020FEF7E7FEFFF7ACFE0020FFF730
:109CB00039FE6846FFF7D8FCFFF7A4FA0020FFF74B
:109CC00046FE08BD08B50020FFF72CFE6846FFF7EA
:109CD0004DFA0020FFF73BFE08BD38B52B4C0025A0
:109CE000617920460079002912D002280DD3FEF7B1
:109CF000C3F9002803D001210B2001F081F80022D4
:109D00003049A06A04F06AFA00E02571657138BD37
:109D100002280AD0042806D3022000902A4A0421EF
:109D2000684603F0D7FF257138BD0120F5E7F0B58F
:109D300085B0002402A8FEF7D9FE7AE0204606216D
:109D4000484322490A5E40180221415ED710CE10D6
:109D50000421415E3846CD103146784371434118A5
:109D600028466843081801F0B3F908490390886B46
:109D7000C96B019100902A4631463846039B05F095
:109D800026FB002828D003A1114823E0F020002062
:109D9000FFFFE7FF2E2E5C536F757263655C737275
:109DA000635C62645F737465705F636F756E746526
:109DB000722E6300D72300007F00F8FF639B010031
:109DC000A02100209A590000B57D0100742D0020CB
:109DD0004F020000FCF7ABF998480A22816BC06B78
:109DE0008A189649002358418A63C863A0071AD18C
:109DF00008464178002916D0016B406B27230022CA
:109E0000C91850418D4A11635063009101902A4650
:109E100031463846039B05F0B0FC002803D0884942
:109E20008848FCF784F98548641C0169E4B2491C40
:109E300001616846007A844280D305B0F0BDF1B577
:109E40007E4E82B0F08835464035009000286DD0B7
:109E50000A21B06906F086FE4003400B0704040C9B
:109E600068682988C00889B2C0000F430443764956
:109E7000706906F077FE390C80B209040843734913
:109E80000C4002998907C90A0C4371490C4000999A
:109E90000905490B0C4311C5210E2C46283C60785E
:109EA000083DC2006B480368D21851706278696837
:109EB0000368D200090CD21891706278A9880368EF
:109EC000D200090AD218D17062780368D2002979C9
:109ED000D21811712A7929681202090E1143627889
:109EE0000368D200D21851712A7929681204090C2A
:109EF000114362780368D200D218917129882A79B7
:109F0000090A1206114362780368D200D218D1718F
:109F100062780068D20029781018017260780828E9
:109F200004D100F073FB002800D160706A68696892
:109F3000530D28880022F280B2617261B281728171
:109F4000C9025B1C3281C90A5B05434A19431140AF
:109F500082B2C808110CC00009047822D243104014
:109F600029606860FEBDFEB5FEF743FA0546FFF7BF
:109F70005CFD0646FFF70EFEA87900272F4C00284F
:109F800008D16879002805D12879002802D101F08C
:109F9000D9FFA770208986420FD9284A78234032FA
:109FA00003CADB430B40C70949063943090F083A86
:109FB000491C0907490E0B435360E07801280CD176
:109FC0002078002809D1616B206B0023019100905B
:109FD0001A461946184605F0D0FB68790F2106F09D
:109FE000ABFD002902D13046FFF729FF01F060FCEC
:109FF000FEBD12498870704710488078704710B5D0
:10A000000E480179491CC9B20171012905D141717C
:10A0100000228903806A04F0E1F810BD10B56420C5
:10A0200005F002F900210D4805F025F9002804D0BB
:10A0300004480349BB30FCF77AF810BDF02000203B
:10A04000949D01005602000010270000FFFFE7FF6B
:10A050007F00F8FF482100207F00E0FFFF9F010004
:10A0600038B5012424076169206929394143F94839
:10A0700001606169226929395143416000200090E3
:10A08000606969462938C0B203F0C1F900980068D8
:10A09000401C04D060692938C0B203F091FA38BD81
:10A0A00038B5012424076169206938394143E948FA
:10A0B00008380160616922693839514341600020E4
:10A0C0000090606969463838C0B203F0A0F9009882
:10A0D0000068401C04D060693838C0B203F070FAE0
:10A0E00038BD10B5FFF7DCFFFFF7BAFF01F03CFC0D
:10A0F00010BD10B501210907096989B206F01CFDE0
:10A1000010BD70B5D34C012560682D07002802D022
:10A110002068002809D168692969293848436060A6
:10A12000686929692938484320606068FFF7E1FFC2
:10A13000296989B248436168884217D00846FFF709
:10A14000D8FF296989B248436168081A80102C2118
:10A1500006F0F2FC002909D06869296929384843CA
:10A16000606068692969293848432060606801682F
:10A17000491C02D14168491C15D0FFF7BAFFC0B293
:10A1800003F02EF96068FFF7B4FF296989B24843EC
:10A190006060FFF7AEFF05462068FFF7AAFF854223
:10A1A00001D16068206070BD70B5AA4C0125083CE3
:10A1B00060682D07002802D02068002809D168694E
:10A1C00029693838484360606869296938384843E4
:10A1D00020606068FFF78DFF296989B24843616894
:10A1E000884217D00846FFF784FF296989B248439F
:10A1F0006168081A80104C2106F09EFC002909D0E5
:10A20000686929693838484360606869296938385D
:10A210004843206060680168491C02D14168491CBC
:10A2200015D0FFF766FFC0B203F0DAF86068FFF7F9
:10A2300060FF296989B248436060FFF75AFF05460D
:10A240002068FFF756FF854201D16068206070BD2D
:10A25000804803C8884201D1002070470120704720
:10A260007D484088002800D00120704770B5794CA7
:10A270002068FFF73EFF054620685830FFF739FF9A
:10A280008542206801D12C3070BDFFF732FF0125D7
:10A290002D076969401C1A39884206D22068FFF7E9
:10A2A00028FF2969401C89B203E02869696980B2E6
:10A2B0002939484370BD70B5664C60688430FFF73B
:10A2C00018FF06466068FFF714FF01252D07864238
:10A2D0005AD060685830FFF70CFF06466068FFF7F9
:10A2E00008FF864250D16068FFF703FF6969401C90
:10A2F0001A3988422AD26068FFF7FBFE401CC0B2C0
:10A3000003F05EF96068FFF7F4FE2969401C89B22A
:10A3100048432168884237D86068FFF7EAFE296918
:10A32000401C89B24843296989B24118206881429A
:10A330002AD9FFF7DEFE6969401A1B3001D0206878
:10A340001BE02869696980B229391BE068692938EE
:10A35000C0B203F035F9286981B2686929384143F0
:10A360002068814210D829696A6989B2293A514323
:10A370002A6992B28918814206D9FFF7BAFE296983
:10A38000401C89B2484320606068FFF7B2FE064671
:10A3900060685830FFF7ADFE8642606801D12C300E
:10A3A00070BDFFF7A6FE6969401C1A39884206D2C3
:10A3B0006068FFF79EFE2969401C89B203E02869A6
:10A3C000696980B22939484370BD2248083803C8FA
:10A3D000884201D100207047012070471F48407813
:10A3E00000280CD01E4903C9C20C48031949104368
:10A3F0003039C988000D884201D001207047002003
:10A40000704716484078012801D901207047002084
:10A41000704770B50F4C083C2068FFF76AFE054690
:10A4200020689830FFF765FE8542206801D14C30E6
:10A4300070BDFFF75EFE01252D076969401C2939B3
:10A4400088420FD22068FFF754FE2969401C89B268
:10A450000CE00000702100201421002010210020B9
:10A46000302100202869696980B23839484370BDBD
:10A4700070B5FB4C6068E430FFF73BFE0646606851
:10A48000FFF737FE01252D0786425AD060689830C5
:10A49000FFF72FFE06466068FFF72BFE864250D17D
:10A4A0006068FFF726FE6969401C293988422AD274
:10A4B0006068FFF71EFE401CC0B203F081F86068C0
:10A4C000FFF717FE2969401C89B24843216888427A
:10A4D00037D86068FFF70DFE2969401C89B24843F0
:10A4E000296989B24118206881422AD9FFF701FE03
:10A4F0006969401A2A3001D020681BE0286969691F
:10A5000080B238391BE068693838C0B203F058F8B7
:10A51000286981B26869383841432068814210D87F
:10A5200029696A6989B2383A51432A6992B289180D
:10A53000814206D9FFF7DDFD2969401C89B24843F5
:10A5400020606068FFF7D5FD064660689830FFF729
:10A55000D0FD8642606801D14C3070BDFFF7C9FD67
:10A560006969401C2939884206D26068FFF7C1FD3D
:10A570002969401C89B203E02869696980B23839C9
:10A58000484370BD70B500281AD0002918D04A7809
:10A590000524D200121D04700025D3050226DB0D10
:10A5A000457086701C0AC47003714B881B0A437186
:10A5B0008B7883710B78C37149780172501D70BD1F
:10A5C0000020C04370BD70B500281CD000291AD0EF
:10A5D0004A8805249200121D92B204700025D3050A
:10A5E0000326DB0D457086701C0AC47003710B884E
:10A5F0001B0A43710B7883714B881B0AC3718978DE
:10A600000172501D70BD0020C04370BD70B50028A0
:10A6100002D0082801D9092070BD914C9149283CED
:10A62000A068FFF7AFFFC01CC117890F081880038F
:10A630008B4D020C6868A16802F0C0FE002801D0B2
:10A64000012070BDFFF714FF686086490020864A2C
:10A650004870864B506811881840C008C00000211F
:10A6600011605060084670BD10B57D4C283C2079C3
:10A6700000280DD105210022C903E06903F0AEFDD9
:10A68000002803D07AA28249FBF744FD0120207103
:10A6900010BD3EB5744C724D03CCC20C4803104340
:10A6A000000D283D083C00285BD0FFF794F979495C
:10A6B00006F058FA216882B2090C0904114321609E
:10A6C000FFF78CF90A2106F04DFA4003400B030C0A
:10A6D000020461682088C90880B2C9001043194388
:10A6E00003C46048AB684278090ED200D21851709A
:10A6F000083C42786168AB68D200090CD2189170AE
:10A700004278A188AB68D200090AD218D170427889
:10A71000AB68D2002179D2181171217922680B021D
:10A72000110E19434278AB68D200D21851712279C8
:10A7300021681204090C11434278AB68D200D21888
:10A74000917121882279090A120611434278AB6877
:10A75000D200D218D1714078AA682178C000801840
:10A7600001724049A868FFF70DFF4B490191A968A4
:10A770000091694608816846FCF765FF002801D012
:10A7800000203EBD03CCC20C48031043000DE880FE
:10A7900001203EBD3EB5324C08342068C1780279B4
:10A7A00009025118491D89B22C2908D80278052AB6
:10A7B00005D14278002A02D18278032A03D0FFF71C
:10A7C00055FD206008E0344A0090019268460181FE
:10A7D000FCF739FF002801D000203EBD01203EBD1E
:10A7E000FEB52E480068012866D11D4C283C207813
:10A7F00000285FD1A069002804D025481CA1623838
:10A80000FBF795FCE0780526234F0125002847D16A
:10A81000FFF71EFD00280FD1FFF722FD00280BD106
:10A8200001F08AF9002807D1FFF7CFFD002803D1F6
:10A83000FFF7E7FD002833D00948002108380670EB
:10A84000417007228270C1700171009001976846C3
:10A850000681FCF7F8FE00282CD106207EE00000DF
:10A860006821002010210020302100207F00E0FF1F
:10A870002E2E5C536F757263655C7372635C6264E9
:10A880005F73796E635F646174612E630000000022
:10A89000160500001027000081AA0100702000208A
:10A8A000FFF7D6FC002808D0FFF774FF002801D07E
:10A8B000A6611FE0FFF7D8FEFEBDFFF7D1FC002820
:10A8C0000FD0F649E068FFF77EFE0197E16800913E
:10A8D000694608816846FCF7B6FE0028EAD10420E4
:10A8E0003CE001F029F9002806D001F024F9002805
:10A8F000E0D0A5612570FEBDFFF767FD002805D0FB
:10A9000000F0FFF80028D5D0032027E0FFF779FDFD
:10A9100000280AD101E0022020E0E1480078002868
:10A9200008D0FFF75BFD002804D0FFF7B2FE002837
:10A93000F1D1BFE7E0780028DDD0DA4800210670C9
:10A94000417008228270C1700171009001976846C1
:10A950000681FCF778FE0028ACD10720A061C9E78A
:10A9600010B5D04C1034002803D0FFF77FFC2060D6
:10A9700010BDCC48216820384269914203D0416122
:10A980000021817010BD8178491CC9B281700429F1
:10A99000EBD210BD10B5FDF72CFD01780322490262
:10A9A00052038918BD4A3F24138849046402490CA4
:10A9B000A3431943FF231180E133994383781B0795
:10A9C000DB0D19431180C07849094901C006C00E4A
:10A9D000014311800020508010BD10B5B14C0834E7
:10A9E000002803D0FFF715FD206010BDAD48216899
:10A9F00020380269914203D001610021417010BDED
:10AA00004178491CC9B241700429EBD210BD70B520
:10AA1000FDF7EFFC05460020A34C014603C468790E
:10AA20000F21083C06F088F8A979890040184005F4
:10AA300000212160606070BDE9E710B5FDF7D9FC29
:10AA40009A4AC3785188DB0649094901DB0E19434C
:10AA5000FF235180E133994383781B07DB0D1943B2
:10AA600051800078032340025B03C0184004400C6F
:10AA70003F235B029943084350800020507010BD73
:10AA800070B5884C0025203C2570012814D0FFF7B4
:10AA9000EBFDA069022804D0032804D0052809D1C1
:10AAA00005E0E58006E00020FFF797FF02E00020C8
:10AAB000FFF756FFA56170BDA069030006F03FFDDA
:10AAC000081C05080D1114181B1C00F06BFF13E087
:10AAD000FFF7B3FFFFF79BFF0EE00120FFF77DFFBD
:10AAE0000AE0FFF757FF07E00120FFF739FF03E017
:10AAF0000120E07000E0E5700120A561FFF770FE25
:10AB000070BD3EB5674C08342068C17802790902EF
:10AB10005118491D89B24C2908D80278052A05D157
:10AB20004278002A02D18278022A03D0FFF771FC12
:10AB3000206008E05E4A0090019268460181FCF7BF
:10AB400082FD002801D000203EBD01203EBD21E74E
:10AB500054492039C870704710B5FDF74AFC534A74
:10AB6000C3785188DB0649094901DB0E1943FF23ED
:10AB70005180E133994383781B07DB0D19435180E2
:10AB80000078032340025B03C0184004400C3F23BD
:10AB90005B029943084350800020507010BD70B58F
:10ABA000002802D0082801D9092070BD3D4C3B493E
:10ABB000203CE068FFF707FDC01CC117890F08188B
:10ABC00080032546020C30356868E16802F0F6FB28
:10ABD000002801D0012070BDFFF76DFB68602F4990
:10ABE0000020488070BD2F4918310A68026049680A
:10ABF0004160704770B5054680683C2105F0B2FFA2
:10AC0000264C064622880F235104880ED205800662
:10AC10009B05120F9843920510431F22520489028C
:10AC20009043890A0843FDF7A0FC3C2105F084FF0E
:10AC3000311A20481B4A4180183269681160AB689C
:10AC400053600268090712091201090F0A430260E2
:10AC50006188120E491C89B261808B00114920392C
:10AC6000CD685B195A7163880268CD689B00120C2D
:10AC70005B199A7163880288CD689B00120A5B1980
:10AC8000DA716288C9689200007851180872608889
:10AC9000082802D3C0B2FFF782FF70BD1421002044
:10ACA0003C210020602100203021002010210020C4
:10ACB00081AA01003821002010B5FEF7B6FEFFF78B
:10ACC000BEF800F094FE48488078FFF768FF4748D8
:10ACD0004078FFF79BFC10BD7CB5002001252D07B7
:10ACE000019068693838C4B227E001A9204602F013
:10ACF0008EFB01980068009068460078FF2802D01B
:10AD0000052815D10CE068464078FF2810D1684628
:10AD10008078FF280CD16846C078FF280BD007E068
:10AD200068464078002803D168468078022802D01F
:10AD3000204602F055FB641CE4B268692938A04241
:10AD4000D3D87CBD7CB5002001252D070190686912
:10AD50002938C4B227E001A9204602F058FB019827
:10AD60000068009068460078FF2802D0052815D1B9
:10AD70000CE068464078FF2810D168468078FF28AC
:10AD80000CD16846C078FF280BD007E068464078B1
:10AD9000002803D168468078032802D0204602F0BC
:10ADA0001FFB641CE4B268691A38A042D3D87CBD8A
:10ADB00010B50F49002008710120FFF711FD10BDEB
:10ADC0000B4810B50B4A00211C3003F0C0F90028D5
:10ADD00003D0094A0949FBF79DF910BD04490870E1
:10ADE000704703480078704714210020102100208C
:10ADF00040210020B1AD010070A80100070500004E
:10AE000010B5030006F09BFB0C1C070B1C1C111D4E
:10AE10002638464A551C00220121084629E0012215
:10AE200000210220FDF711F932E00F220A2105204E
:10AE3000FDF70BF9002803D00621022000F08FF95E
:10AE400010BD0F2210210620FDF7FFF80028F7D0D3
:10AE5000062109E0002909D0012211460720FDF74B
:10AE6000F4F80028ECD003210120E7E70A220121B1
:10AE70000720FDF7EAF810BD002902D003220E21B9
:10AE800001E003220C210820FDF7DFF80028F2D0B2
:10AE90000121D2E703220F210920F5E700F0A7FCEA
:10AEA000002803D003220E210A20E2E700F021F857
:10AEB00010BD00F09CFC002801D0002000E0012023
:10AEC00000F007F810BD10B500F071F9FCF7BEFFF7
:10AED00010BD10B5002806D01F4B012216210A20F4
:10AEE000FDF79AF810BD01220E210A20FDF7ADF8FA
:10AEF00010BD10B501F029F8044600F0A9FF844206
:10AF000026D800F0A5FF044601F01FF8642148434D
:10AF1000214605F011FEC0B2142802D206221121EA
:10AF200003E0282805D2062212210A20FDF78DF819
:10AF300010BD3C2802D206221321F6E7502802D287
:10AF400006221421F1E7642802D206221521ECE73B
:10AF500003220F21E9E70000CD0C000010B50068C6
:10AF6000002802D0012828D12AE0FBF78AFF0446F6
:10AF7000142105F0E1FD4949401C0A78C0B2824223
:10AF80001BD00870142C02D20022052112E0282CBC
:10AF900002D2002206210DE03C2C02D20022072121
:10AFA00008E0502C02D20022082103E0642C05D2D4
:10AFB000002209210420FDF748F810BD642CFCD1C3
:10AFC00000226421F6E735480078810040183C21D2
:10AFD000081AC0B270473149002801D0002008701B
:10AFE0004868022802D02D48001DB7E770472C485A
:10AFF0000169C90AC907C90F09D000210069000BFE
:10B00000C007C00F05D0002907D0012070470121DB
:10B01000F4E7002901D0002070470220704710B5E6
:10B020000B280CD11D4A00231370FFF7E0FF50607E
:10B03000022805D019485360001DFFF78FFF10BD8F
:10B04000FDF705F80428FAD1FCF700FF10BD00B5A4
:10B050000C2803D1FFF7CBFF1049486000BD032146
:10B0600010480904C1620163704710B5FFF7BFFFC4
:10B070000A490228486002D0081DFFF76FFF03202D
:10B0800008490004C86210BD00B5FFF7B0FF0228F0
:10B0900001D0012000BD002000BD00008021002063
:10B0A000000500500007005030B5084C08E00D784E
:10B0B00003466B401B06DB0DE35A000A5840491C4F
:10B0C0001346521E92B2002BF1D130BDCA1E0200AF
:10B0D000024600200121890700E089089142FCD83E
:10B0E00007E04318934202D8D21A4B0018184008C0
:10B0F00089080029F5D1704770B53E4C002261885F
:10B100002388994205D362602280628000F06CF847
:10B1100070BD00680025012803D0022807D06260B6
:10B120000EE088073449000F0D58103105E0C807BC
:10B130003149400F10390D580831085800280BD0FC
:10B1400000F052F82B4A2946121DA06803F046F879
:10B150006088401C608070BD00F041F8F2E7F8B5EF
:10B16000244C07460E460025A06803F072F800F054
:10B170003BF8002060806760012F0ED0022F10D0B6
:10B18000606000F02CF860881A4A401C6080121D34
:10B190002946A06803F022F8F8BDB00020801648C8
:10B1A00003E070002080144810380568E9E710B506
:10B1B000104CA06803F04DF800F016F80020606015
:10B1C0002080608010BD0B4810B50C4A002108306B
:10B1D00002F0BDFF10BD0A490320486370470120FB
:10B1E0000849400788607047012006494007C86049
:10B1F0007047000088210020DC200200F9B0010027
:10B20000400700500005005008B5012000074069C4
:10B2100069460F38C0B202F0FAF800982030007882
:10B22000002801D0002008BD012008BD38B5044623
:10B230006846FDF75BFCF848018809122170017827
:10B24000617041880912A1708178E17081880912CA
:10B2500021710079607138BD38B501250024684638
:10B26000FDF744FC6846007801E0641CE4B28442C7
:10B27000FBD9284638BD10B5E849E02008700C20FD
:10B280008870FF2491342046FEF7DAFAE348E02183
:10B29000001F01700C2181702046FEF7D1FA10BD0D
:10B2A00038B5FFF7E8FFFFF7AFFF00281FD1FFF722
:10B2B000D3FF002808D0D94D04240C3DEC60FF20BA
:10B2C0009130FEF7BDFAAC60002001242407009005
:10B2D000606969460F38C0B202F099F800980068BA
:10B2E000401C04D060690F38C0B202F079F838BD54
:10B2F00010B500F00CFA10BD70B50125C74C6D07F4
:10B300000C3CA560FF20F530FEF79AFAE56070BDB1
:10B3100010B5C34C2178002903D0FCF794F9002024
:10B32000207010BD012801D1BD490870704770B56B
:10B33000BC4C049D217000216170A270190AE1705B
:10B340002371002103E06A5C66187271491C9942FE
:10B35000F9DBB54904605B1D4160038170BDF8B540
:10B360000178012000070125AD4E07290FD00A29D9
:10B370000CD1406969460F38C0B202F048F8009815
:10B3800000212030009002F014F8B570F8BD40693B
:10B3900008240F38C0B2694602F039F8A3492246A2
:10B3A000009802F00BF87570F8BD08B50A206946E0
:10B3B00008709B49002088709D4A0121684602F070
:10B3C00089FC002803D09BA2E121FAF7A3FE08BD67
:10B3D00000B5934885B00078002816D001200007FA
:10B3E000406901A90F38C0B202F011F80198012399
:10B3F0002030019000900C22062102A8FFF797FF51
:10B4000002A8FFF785FF05B000BD0021914A08465C
:10B4100002F060FC0028F6D086A2F021FAF77AFE4E
:10B42000F1E738B50C4605460720694608707C49A7
:10B43000002048707E4A0121684602F04BFC00283B
:10B4400003D07CA2FA21FAF765FE0020774903E0D9
:10B450002A18D2780A54401CA042F9DB38BD00B546
:10B460006F4885B00178002916D04078002813D0A5
:10B4700001200007406904A90F38C0B201F0C7FFDE
:10B480000498009020230922062101A8FFF74FFF0E
:10B4900001A8FFF73DFFB6E700216F4A084602F01A
:10B4A00019FC0028AFD0FF2162A20C31FAF732FE5E
:10B4B000A9E71FB55A4A1278002A0AD00B46009015
:10B4C0000222062101A8FFF732FF01A8FFF720FFA3
:10B4D0001FBD624A02F0FEFB0028F9D0FF2155A2F1
:10B4E0001931FAF717FE1FBD00B54D4887B0007837
:10B4F00000280DD004A8FFF799FE04A806230090A9
:10B500000E22194601A8FFF712FF01A8FFF700FF5E
:10B5100007B000BD4248C178002901D10121C170A6
:10B52000704710B53E490020C8704D4A014602F0F0
:10B53000D1FB002804D0FF213EA23431FAF7EAFD06
:10B5400010BD00B5364885B00078002811D04548B8
:10B55000694600880223020A0A74487404A800900D
:10B560000422062101A8FFF7E2FE01A8FFF7D0FEA2
:10B5700049E700213C4A084602F0ACFB0028F7D01E
:10B58000FF212CA24431FAF7C5FD3CE770B5044613
:10B5900000780D46102803D02149C978002923D00E
:10B5A000030005F0CCFF12210A21812122252F70F2
:10B5B000212865211521217B7E21284A2946E01C6E
:10B5C00002F088FB00280FD0FF211AA2503109E0B9
:10B5D0000021264A084602F07DFB002804D0FF2106
:10B5E00014A25431FAF796FD70BDFFF744FE70BD0A
:10B5F000FFF782FE70BDFFF707FE0028FAD1FFF7C4
:10B60000D4FE70BDFFF700FE0028FAD129B2204613
:10B61000FFF707FF70BD0000742D00200C050050DF
:10B6200094210020182C002025B30100B42E002006
:10B630005FB301002E2E5C536F757263655C73728D
:10B64000635C62645F666163746F72795F74657373
:10B65000742E6300D1B301005FB40100B3B40100E4
:10B66000F1B201005620002043B50100E9B4010009
:10B670000021134A084602F02DFB0028CAD0FF2102
:10B68000104A6631AEE700210F4A084602F022FB5D
:10B690000028BFD0FF210B4A6A31A3E7FFF73AFF2A
:10B6A00070BDFFF73EFF70BD0021084A084602F05A
:10B6B00011FB0028F7D0FF21024A743192E7000005
:10B6C000D1B3010034B601005FB4010043B50100FD
:10B6D00010B5032012490004C8621249C003486033
:10B6E00011484024046030BFFFF7CEFC0028FAD098
:10B6F0000D488030046010BD10B5032008490004D7
:10B70000C862FDF7DDF909490120086010BD10B5D8
:10B71000032003490004C862FDF7D2F931DF10BDF0
:10B72000000700500063004000E100E00005004019
:10B73000FC4801460A8B8283498BC1831430F94946
:10B740000068203108607047F64820307047F5489F
:10B750001C30704710B5F349052388684968408854
:10B7600000248000001D80B20B70C2054C70D20D09
:10B770008B70130ACB700A7110BDEA4810B52030E7
:10B78000006801072FD0E74914310860E5480246F8
:10B79000938B0383D28B428383685A88521C92B264
:10B7A0005A800B68446892001B0E1219537183680B
:10B7B0000A685B8844689B00120C1B199A718368A5
:10B7C0000A885B8844689B00120A1B19DA71826838
:10B7D000406852880978920010180172FFF7BAFF8A
:10B7E0000020FEF7FDFF10BDCE4908707047CD4820
:10B7F0000078704710B5CB4C0F23E060A0689B0524
:10B8000001884A04900EC9058006090F98438905EE
:10B8100008431F21490488439102890A0843FCF721
:10B82000A4FE3C2105F088F92178012251402170C5
:10B83000A26853885B1C5380A3891B1A20461430CE
:10B84000438003681B091B010B430360190E5288D8
:10B8500063689200D2185171A268016852886368C7
:10B860009200090CD2189171A2680188528863680D
:10B870009200090AD218D171A168626849880078DB
:10B8800089008918087210BD10B5A64881684988DA
:10B8900014290CD80178012041400820FFF7B0FAA4
:10B8A000FCF78CFF3C2105F047F9FFF7A3FF10BD23
:10B8B0007CB59C4C207800280CD0FCF77FFF3C2105
:10B8C00005F03AF9E168401A2D210901884202DBAE
:10B8D000FFF7DAFF7CBDF028FCDB6846FFF783F951
:10B8E00000980025032815D12069002802D100F016
:10B8F0002CFB206100F029FB2169C831884207D860
:10B90000FCF75CFF0199401A4B21C9008842E1DD38
:10B91000FFF7BAFF25617CBD10B5FCF76AFD017821
:10B9200003224902520389184A047E493F24896848
:10B9300064020B88520CA3431A43FF230A80E133AD
:10B940009A4383781B07DB0D1A430A80C07852099B
:10B950005201C006C00E02430A8010BD714800218A
:10B96000806801804180D7E738B5FFF7F7FF6D4960
:10B9700000201431086014390870C860086101247F
:10B9800024070090606969461938C0B201F03FFD94
:10B9900000980068401C04D060691938C0B201F0FA
:10B9A0000FFE38BDF8B55F498A684D785088401B56
:10B9B000508001204E680EE02B189B009C198300DC
:10B9C0009B1967795F71A7799F71E779DF71247A95
:10B9D000401C1C72C0B253888342EDD288684088F4
:10B9E000002803D1FFF7A4FEFFF796FFF8BD7CB552
:10B9F0004C4DA8684088002825D084000521684661
:10BA000001700023241D4370E2058170D20D8280F5
:10BA10006868017043708170110AC170027104225C
:10BA2000401DA96805F036F90834A005020E012072
:10BA30000007406969681938C0B201F0F0FC0028BD
:10BA400001D000207CBD01207CBDF8B501252D076B
:10BA50006869344C1938C0B26A46616801F02EFD3D
:10BA600061680422491DA06805F014F920461830C9
:10BA70004088002821D0A368626858882146800049
:10BA8000801840791431000208605E88B600B6184C
:10BA9000B6793043000208605E88B600B618F679C1
:10BAA0003043000208605B889B009A18127A1043AA
:10BAB0000860000700D00120207068691938C0B202
:10BAC00001F08EFCF8BD30B5164C85B0A06805229B
:10BAD00040880023810068460273091D4373CD0529
